:020000040800F2
:1000000000170020AD010008F31E0008D91C0008ED
:10001000F11E0008DD02000825380008000000007D
:100020000000000000000000000000007120000837
:10003000AF050008000000006F2000087D200008C8
:10004000C7010008C7010008C7010008C701000870
:10005000C7010008C7010008C7010008C701000860
:10006000C7010008C7010008C7010008C701000850
:10007000C7010008C7010008C7010008C701000840
:10008000C7010008C7010008C70100080000000000
:10009000000000000000000000000000C701000890
:1000A000C7010008C7010008C7010008C701000810
:1000B000C7010008C7010008C7010008C701000800
:1000C000C7010008C7010008C7010008C7010008F0
:1000D000C7010008C7010008C701000800000000B0
:1000E000C7010008C7010008C701000800000000A0
:1000F000000000000000000000000000C701000830
:1001000000000000C7010008C7010008C70100087F
:1001100000000000000000000000000000000000DF
:10012000C7010008C7010008C7010008C70100088F
:10013000C7010008000000000000000000000000EF
:10014000000000000000000000000000F51E000894
:10015000C7010008C7010008C7010008C70100085F
:10016000C7010008C70100080000000000000000EF
:10017000000000000000000000000000000000007F
:1001800000000000C701000800000000000000009F
:10019000C7010008DFF810D000F08EF800480047D3
:1001A000E5380008AFF300800017002006488047BC
:1001B00006480047FEE7FEE7FEE7FEE7FEE7FEE74C
:1001C000FEE7FEE7FEE7FEE745210008950100088F
:1001D0002DE9F05F0546002092469B46884606467C
:1001E000814640241BE0284641464746224600F00F
:1001F00053F853465A46C01A914110D31146184637
:10020000224600F03AF82D1A67EB01084F462246C5
:100210000120002100F031F817EB00094E41201EAB
:10022000A4F10104DFDC484631462A464346BDE8D6
:10023000F09F40EA01039B0703D009E008C9121FA1
:1002400008C0042AFAD203E011F8013B00F8013B90
:10025000521EF9D27047D2B201E000F8012B491EBC
:10026000FBD270470022F6E710B513460A46044653
:100270001946FFF7F0FF204610BD202A04DB203A84
:1002800000FA02F1002070479140C2F1200320FAE9
:1002900003F3194390407047202A04DB203A21FAE7
:1002A00002F00021704721FA02F3D040C2F120028F
:1002B0009140084319467047064C074D06E0E06838
:1002C00040F0010394E8070098471034AC42F6D39D
:1002D000FFF764FF103B0008303B0008FEE700001A
:1002E00010B5D0F8BC22044692F81834022B07D07F
:1002F000032B05D0052B03D0062B01D0092B13D1DE
:10030000022082F81804002382F8103482F8113495
:1003100082F8123482F8133482F8140482F8153407
:10032000C2F80034C2F804340848407DC00607D53E
:10033000204602F0BCFD2046BDE8104002F05CBC47
:100340004888BDE8104000F04BBA0000D8000020FB
:1003500030B40B46D0F8BC12DC8891F818248CB16C
:10036000022A01D0052A11D15A88C1F80024DA885E
:100370000323C1F8042481F8183481F8143430BC04
:1003800001F011BF052A05D0022A03D030BC19465E
:1003900001F0FEBE012081F81904062281F818241C
:1003A000002081F8110481F8120481F8130481F807
:1003B000142430BC7047000070B505460021D5E913
:1003C000AF4094F81824032A02D0062A42D125E02F
:1003D000D4F8042402B3042284F8182484F81114F5
:1003E00084F8121484F8131484F81424D4F8001434
:1003F00011B92178412908D0D4F80834866904F568
:10040000826201211846B04724E0D4F8083404F58C
:10041000826200218669F5E7052011E094F819044D
:10042000012801D038B115E0072084F81804012212
:1004300084F8112408E00B48007D40070AD502200B
:1004400084F8180484F8111484F8121484F813142E
:1004500084F8140404F582612846BDE87040062241
:1004600001F0BBBED800002010B5D0F8BC12164B6E
:10047000002281F819241B7D5B070BD5062081F82B
:10048000180481F8112481F8122481F8132481F8CA
:10049000140410BD082381F8183481F8112481F860
:1004A000122481F8132481F8143402F000FDBFF304
:1004B0004F8F06480168064A01F4E061114301606C
:1004C000BFF34F8F00BFFDE7D80000200CED00E028
:1004D0000400FA0570B505460B46D5E9AF46C98854
:1004E000002099B394F81814022906D0092904D0E1
:1004F000C4F80404C4F8000447E05988C4F80014A0
:10050000DA88C4F80424E9B1012933D9092384F82D
:10051000183484F8110484F8120484F8130484F85D
:1005200014348802D4F80814A0F5006008447369F4
:1005300021469847D4F8042401462846BDE8704077
:1005400001F04BBE032A02D9022101E023E0092178
:1005500084F8181484F8110484F8120484F813043D
:1005600084F814142070212060704120A0700322B0
:100570002146E2E70F2184F8181484F8110484F866
:10058000120484F8130484F814142846BDE870405B
:10059000194601F0FDBD022184F8181484F81104F5
:1005A00084F8120484F8130484F8141470BD70479E
:1005B00072B6FEE7002229B101291AD002291BD008
:1005C0004FF440720E490B6823F440730B600B68C4
:1005D00013430B600A6822F0F8020A600A680223DB
:1005E00003EBC00002430A60086840F480300860F2
:1005F00070474FF48072E5E74FF40072E2E70000C5
:10060000103C02401348016889050FD5016821F4A8
:1006100000710160016841F400610160016821F42A
:1006200000610160016841F40071016001684905E1
:100630000FD5016821F480610160016841F48051A7
:100640000160016821F480510160016841F480611A
:1006500001607047003C024008490A6822F4407279
:100660000A600A6842F004020A600A684FF48033A4
:1006700043EA002002430A6070470000103C024039
:10068000064A136823F440731360136813601368F9
:1006900043F001031360017070470000103C0240FA
:1006A000094910B50C6824F440740C600C6844F4DB
:1006B00040740C600C6844F001040C600260BFF3ED
:1006C0006F8F436010BD0000103C0240074A136862
:1006D00023F440731360136843F48073136013684A
:1006E00043F001031360018070470000103C02409A
:1006F000074A136823F440731360136843F40073CC
:100700001360136843F00103136001607047000039
:10071000103C02401C490868C2061C4805D5C26945
:1007200042F01002C26110220A600A68920605D5E2
:10073000C26942F00802C26120220A600A685206B9
:1007400005D5C26942F00402C26140220A600A680B
:10075000120605D5C26942F00202C26180220A6017
:100760000A68D20506D5C26942F00102C2614FF49F
:1007700080720A600A68920705D5C26942F02002B9
:10078000C2610220086070470C3C0240E009002072
:1007900070B5114904460020C86100F049FA0646C8
:1007A0000E4D09E0601C07D024B100F041FA801B17
:1007B000A04201D9032070BD2868C003F2D4286884
:1007C000C00701D001202860286810F4F970F2D029
:1007D000FFF7A0FF012070BDE00900200C3C0240A3
:1007E00070B5044600F024FA0546601C02D00448A7
:1007F0000078044400F01CFA401BA042FAD370BDFC
:10080000880000202DE9F047044622480F46017E6B
:1008100001290AD00121804601764CF25039484620
:10082000FFF7B6FF020003D02FE00220BDE8F087FB
:100830004FF0FF3038602068174D012801D0A668BE
:100840001CE0207C6168FFF707FF4846FFF7A0FF28
:100850000246286820F00400286014E0217C30461D
:10086000FFF7A8FE4846FFF793FF0200286820F034
:10087000FA00286001D03E6005E0761CD4E9021041
:100880000844B042EAD8FFF7BDFE002188F81810EE
:100890001046CBE7E0090020103C02400348016805
:1008A00041F000410160002070470000103C024010
:1008B0002DE9F0471B4E05461446307E1F468946FB
:1008C000012808D0012030764CF250384046FFF71E
:1008D0005FFF18B114E00220BDE8F0879DB1012D43
:1008E00016D0022D19D022463B464846FFF7D8FEC7
:1008F0004046FFF74DFF0C490A6822F001020A60EA
:1009000000213176E8E7E1B24846FFF7B9FEEFE7AC
:10091000A1B24846FFF7DAFEEAE721464846FFF76C
:10092000E7FEE5E7E0090020103C0240074900200F
:100930000A68002A09DA054A054B0C3A1360054B90
:1009400013600968002900DA01207047103C02405A
:1009500023016745AB89EFCD2DE9F04F0022DFF889
:1009600008B101264FF00F0906FA02F401EA040368
:10097000A34273D122F003075F44D7F80888950794
:100980004FEA157C09FA0CFA0AEA0805DFF8DC8060
:10099000404502D14FF000081DE0DFF8D48040450B
:1009A00002D14FF0010816E0DFF8C880404502D1BF
:1009B0004FF002080FE0DFF8C080404502D14FF051
:1009C000030808E0DFF8B480404502D14FF0040886
:1009D00001E04FF0070808FA0CF8A84521D1284D8E
:1009E000D5F800C02CEA030CC5F800C02D1DD5F8C1
:1009F00000C02CEA030CC5F800C02D1DD5F800C0BE
:100A00002CEA030CC5F800C02D1DD5F800C02CEA57
:100A1000030CC5F800C0D7F8085825EA0A05C7F83E
:100A20000858056857000323BB409D430560D5085F
:100A300000EB8505D5F820C057074FEAD76809FABB
:100A400008F72CEA070CC5F820C0C5689D43C560AF
:100A50004568A543456084689C438460521C102A05
:100A600082D3BDE8F08F000000300140000002405A
:100A70000004024000080240000C02400010024046
:100A8000003C01402DE9F84F00224FF001080325FA
:100A90004FF00F0E0B6808FA02F42340A34271D105
:100AA0004E68012E05D0022E03D0112E01D0122E39
:100AB00015D18668570005FA07FC26EA0C06D1F81E
:100AC0000CC00CFA07FC4CEA060CC0F808C04668DB
:100AD000A6430C79C4F30014944034434460C668C0
:100AE000570005FA07FC8C6826EA0C06BC40344324
:100AF000C4604C68022C01D0122C13D1D40800EB36
:100B00008404A346D4F8209054074FEAD46A0EFA1E
:100B10000AF629EA06090E6906FA0AF646EA0906FD
:100B2000CBF8206004680E7924EA0C0406F0030672
:100B3000BE40264306604C68E40056D52E4C26681D
:100B400046F480462660246822F0030604F48044BC
:100B500000942A4C3444A446D4F808489607370F2A
:100B60000EFA07F6B443264EB04201D1002615E036
:100B7000244EB04201D1012610E0234EB04202D1F2
:100B800002260BE031E0214EB04201D1032605E000
:100B90001F4EB04201D1042600E00726BE40264386
:100BA000CCF808681B4E34684F689C43FF0300D59F
:100BB0001C433460174E361D34684F689C43BF0396
:100BC00000D51C433460134E083634684F689C438C
:100BD000FF0200D51C4334600E4E0C3634684F685B
:100BE0009C43BF0200D51C433460521C102AFFF402
:100BF00051AFBDE8F88F000044380240003001409A
:100C0000000002400004024000080240000C0240C4
:100C100000100240003C0140426931EA020200D16A
:100C20000904816170470AB1816170470904FBE7DB
:100C300001488068704700008800002002488168F1
:100C40000278114481607047880000200B4810B57D
:100C5000016841F400710160016841F48061016044
:100C6000016841F480710160032000F06FF80020FA
:100C700000F006F800F024F8002010BD003C02400F
:100C800070B50D4D04464FF47A712878B1FBF0F041
:100C90000A490968B1FBF0F001F00AF848B9102CD4
:100CA00007D200222146501E00F030F800206C6070
:100CB00070BD012070BD000088000020940000205D
:100CC0000A4808B5016841F480410160006800F4F9
:100CD000804000900548001F016841F0805101608C
:100CE000006800F08050009008BD000044380240C9
:100CF000002809DB00F01F0201219140400980001B
:100D000000F1E020C0F8001170470000F0B40E4B75
:100D10001B680C46C3F30223C3F10705042D00D959
:100D20000425191D072901D2002300E0DB1E01263E
:100D300006FA05F1491E214099409E40761E164054
:100D40003143F0BC02F06FBD0CED00E0064900F04D
:100D5000070208684FF6FF03184040EA0220034AE2
:100D600010430860704700000CED00E00000FA0539
:100D700070470068416200207047F0B50368586A08
:100D800039B19C6A4FF4827600EB144400204D1E6A
:100D90000AE040EA024098620FE006EB8007DF5964
:100DA000401C04EB1744C0B2A842F6D344EA024008
:100DB0004FF4807202EB810158500020F0BDD0F852
:100DC000040401F07ABDC1EBC10200EB8202D0F84D
:100DD0000404926C01F0E5BCC1EBC10200EB82029D
:100DE000D0F80404D2F8082201F030BDD0F8040491
:100DF00001F065BD70B5044601F00F0062689042D5
:100E000001D9012070BD0B0601F00F01C1EBC1013A
:100E100004EB81014FF001024FF0000503D581F88A
:100E20003D203C3103E081F8FD5101F5FE718D70EC
:100E3000087094F8BC03012808D084F8BC2320680B
:100E400002F082FA84F8BC53002070BD022070BD0D
:100E50002DE9F04104460F0601F00F00C0EBC00180
:100E600004EB81014FF001064FF0000503D581F836
:100E70003D603C3103E081F8FD5101F5FE710870E1
:100E80008A60CB704A7802B1C880022B00D10D7104
:100E900094F8BC03012809D084F8BC63206802F0F0
:100EA0001BF8284684F8BC53BDE8F0810220FBE71C
:100EB00070B50C4601F00F05C5EBC50100EB8101D3
:100EC000C1F81032C1F808220023C1F8143281F8A9
:100ED000FD3181F8FC51036901F5FE71012B00D150
:100EE0000A612207027C006803D002F085FA002024
:100EF00070BD02F071F9FAE770B504460D4601F0D5
:100F00000F006168884201D9012070BD29064FF0A9
:100F100000064FF0010207D5C0EBC00104EB8101D0
:100F200081F83D203C3107E0C5EBC50104EB8101B0
:100F300081F8FD6101F5FE718A70087094F8BC03B8
:100F4000012807D084F8BC23206802F029FA28077A
:100F500002D007E0022070BD217C04F57172206888
:100F600002F0C6F984F8BC63002070BD70B50C4671
:100F700001F00F05C5EBC50100EB81010B658A642B
:100F800000234B65012381F83D3001F83C5F036984
:100F9000012B00D10A612207027C006803D002F015
:100FA0002BFA002070BD02F017F9FAE72DE9FC5F7B
:100FB00005680446284602F048FB00287ED12068D8
:100FC00002F06FFB002879D0206802F06AFB8007EE
:100FD00004D52168486900F002004861206802F0E9
:100FE00060FBC10604F57170009034D520688169FA
:100FF00021F0100181612F6A07F00F00C0EBC000E3
:1010000004EB8006C7F3434006F5FE76022802D0C3
:10101000062811D01AE047F6F070074216D0C7F341
:101020000A1217462846F16802F03FFBF068384480
:10103000F060B069384408E008222846009902F0C0
:1010400034FBB069C7F30A110844B06120688169B4
:1010500041F010018161206802F023FB00034FF092
:10106000010A4FF0080B5BD50026206802F0F8FA61
:101070000746DFF8689351E0F8074DD0F1B22068D9
:1010800002F007FB8046C00707D005EB4611C1F808
:1010900008AB3146204600F033FF5FEA087022D5E6
:1010A00005EB4611C1F808BB2068016C00EB461047
:1010B0000191D0F8082B494507D900E08BE11104D4
:1010C00003D54FF40041C0F8081B204600F073FA26
:1010D0000198484507D92069012804D120680121D9
:1010E000009A02F005F95FEAC86004D505EB4611E5
:1010F0001020C1F8080B5FEA886004D505EB4611A3
:101100002020C1F8080B5FEA884005D505EB4610A2
:101110004FF40051C0F8081B7F08761C002FABD19C
:10112000206802F0BEFA40034FF000095CD5206849
:1011300002F08FFA0746002654E0F80750D0F1B2CB
:10114000206802F094FA8046C00723D006F00F0210
:101150000AFA02F0D5F834288243C5F8342805EBA2
:101160004610C0F808A9206901280FD1C6EBC600B7
:1011700004EB8000D0E911211144816436B9206D5F
:1011800020B920680121009A02F0B2F8F1B220469D
:10119000FFF719FE5FEA087003D505EB4611C1F8A9
:1011A00008B95FEAC86004D505EB46111020C1F804
:1011B00008095FEA486004D505EB46114020C1F8F4
:1011C00008095FEA887004D505EB46110220C1F8D2
:1011D00008095FEA086003D53146204600F0F6FEB4
:1011E0007F08761C002FA8D1206802F05AFA002848
:1011F00011DAD5F8040820F00100C5F8040894F8C5
:10120000F403012829D0204600F0B9F9206841698B
:1012100001F000414161206802F043FA00050BD55E
:10122000D5F80808C00702D0204600F011FA20685F
:10123000416901F400614161206802F032FAC004A2
:1012400068D5D5F8040820F00100C5F8040810217D
:10125000206802F0DBF9002127E084F8F4930021F4
:101260002046FFF785FDD1E705EB41104FF67F32B1
:10127000C0F80829D0F8003923F40013C0F8003969
:10128000D0F8003943F00063C0F80039C0F8082BEB
:10129000D0F8002B22F40012C0F8002BD0F8002B5D
:1012A00042F00062C0F8002B491C60688842DBD81D
:1012B000D5F81C0840F00110C5F81C08206B60B17F
:1012C000D5F8840840F00B00C5F88408D5F8440828
:1012D00040F00B00C5F844080CE0D5F8141842F2B1
:1012E0002B000143C5F81418D5F8100840F00B0086
:1012F000C5F81008D5F8000820F4FE60C5F800080D
:10130000217C2068009A01F0F3FF2068416901F414
:1013100080514161206802F0C4F9800415D520682D
:1013200001F01AFE206802F083F9E06000F0DCFAB8
:101330000146227B206802F0EFF9204600F00CF90C
:101340002068416901F400514161206802F0A9F967
:10135000000707D5204600F016F92068416901F022
:1013600008014161206802F09CF9C00208D5002103
:10137000204600F035F82068416901F48011416190
:10138000206802F08EF9800208D50021204600F086
:101390002BF82068416901F400114161206802F0D6
:1013A00080F9400007D52046FFF709FD2068416914
:1013B00001F080414161206802F073F940070AD5CD
:1013C00020684568680702D52046FFF70FFD2068B2
:1013D000416829434160BDE8FC9F00000A30544F3A
:1013E000D0F8040401F0B8BAD0F8040401F0B6BA99
:1013F0002DE9F0418AB0040005D094F8BD032668B9
:10140000002520B108E001200AB0BDE8F08184F891
:10141000BC53204600F05EF8032084F8BD03F06B57
:10142000C00500D42561206801F0D0FE04F1100150
:10143000282288466846FEF7FCFE94E80F0001F07B
:1014400099FD0226C8BB0021206802F03CF900206B
:1014500001270EE0C0EBC00104EB810181F83D7073
:1014600001F83C0FC880CD708D60CD60401CC0B2CB
:101470004D6161688142EDD8002011E0C0EBC001F0
:1014800004EB810181F8FD5181F8FC0181F8FF51E5
:10149000C1F80452C1F80852401CC0B2C1F8105241
:1014A00061688142EAD8282241466846FEF7C1FEBB
:1014B00094E80F0001F0D0FD10B184F8BD63A2E7FD
:1014C00084F8385084F8BD73206801F0B7FD00201F
:1014D0009AE7000010B586B0044614216846FEF76E
:1014E000C1FE2068B0F1A04F2FD119480021026839
:1014F00042F001020260006800F0010005904FF424
:10150000C05000900220CDE90101032003900A2081
:10151000049069460F48FFF7B5FA0D48001D0168B1
:1015200041F0800101600A481430016841F48041B3
:1015300001600068002200F48040059011464320BD
:10154000FFF7E4FB4320FFF7D3FB06B010BD00001C
:10155000303802400000024070B50446C0680125E2
:10156000022801D0FFF724F82946D4F8040401F03A
:101570004BFAD4F80404BDE8704001F006BAD0F884
:10158000040401F02BBAD0F8040401F031BA10B50C
:10159000044690F8BC0301280BD0012084F8BC035A
:1015A00084F83810206802F0A5F8002084F8BC0305
:1015B00010BD022010BDD0F8042400F57171104652
:1015C00001F02EBA10B50446006894F8BC13012946
:1015D00006D0012184F8BC13A16A012902D008E0D9
:1015E000022010BDA169012903D0816B41F4803133
:1015F0008163206801F0F4FF206801F011FD0020F4
:1016000084F8BC0310BD70B50446006894F8BC13A0
:10161000054601290FD0012184F8BC1301F0D6FD45
:10162000206801F00BFD1021206801F0EFFFA06A97
:10163000012802D008E0022070BDA069012803D073
:10164000A86B20F48030A863002084F8BC0370BD30
:1016500010B50446D0F8040401F02DFA2068D0F843
:10166000001E41F00101C0F8001E206A002804D0CD
:101670000248016841F00601016010BD10ED00E074
:101680002DE9F0470E46050065D0DFF81481D8F843
:101690000000F7B200F00F00B04207D288F80070E7
:1016A000D8F8000000F00F00B04254D128683D4C3B
:1016B000810712D5400703D5206840F4E050206030
:1016C0002878000703D5206840F460402060206837
:1016D000A96820F0F000084320602878C0072DD0CA
:1016E000304968680839012812D0022813D003282D
:1016F00011D00968890700292DDA216821F003013A
:1017000001432160FFF794FA814641F2883A0EE0E6
:1017100009688903EFE709688901ECE7FFF788FAB0
:10172000A0EB0901514502D90320BDE8F0872068EC
:10173000696800F00C00B0EB810FEFD1D8F8001011
:10174000404601F00F01B14207D90770006800F070
:101750000F00B04201D00120E7E72878400705D507
:101760002068E96820F4E0500843206028780007EA
:1017700006D52068296920F4604040EAC100206055
:1017800000F0B8F82168084AC1F30311515CC84061
:101790000649086006480068FFF772FA0020C4E7AF
:1017A000003C024008380240BC3A00089400002087
:1017B0008C0000202DE9F041FFF73AFA444C054631
:1017C000206840F00100206005E000BFFFF730FA1C
:1017D000401B022847D820688007F7D5206840F0D2
:1017E00080002060FFF724FA0546394E00200836B5
:1017F000306041F2883704E0FFF71AFA401BB84224
:1018000031D8306810F00C0FF6D1FFF711FA054609
:10181000206820F45020206005E000BFFFF708FAA0
:10182000401B64281FD820688003F7D4FFF700FA14
:101830000546206820F08070206004E0FFF7F8F98A
:10184000401B02280FD820688001F7D4FFF7F0F979
:101850000546206820F08060206007E0FFF7E8F987
:10186000401B022802D90320BDE8F0812068000156
:10187000F4D417491748091D0860154916488431E2
:10188000086013480C30016821F4F85101600168C8
:1018900021F400510160016841F41F0101600168F9
:1018A00041F4001101600A487430016821F001011F
:1018B0000160016841F080710160094907480860D2
:1018C00008480068FFF7DCF90028CDD00120CBE7FD
:1018D0000038024010300004003000200024F400E2
:1018E000940000208C000020014800687047000030
:1018F00094000020154810B5006810F00C02144840
:1019000013D04110042A0FD0082A0ED10F4C241FE7
:101910002268236802F03F025B0207D52068C0F30B
:101920008810A0FB010106E0084610BD2168C1F344
:101930008811A1FB00010023FEF74AFC2168C1F3D6
:101940000141491C4900B0FBF1F010BD08380240CC
:101950000024F4002DE9F84F04006ED02078DFF861
:101960003C93C007A9F104054AD009F104000168BD
:10197000C1F38101012908D00068C0F38100022869
:101980000AD1D9F80000400206D52868800337D56F
:1019900060680028E1D033E06068B0F5803F10D087
:1019A000B0F5A02F286810D020F480302860286877
:1019B00020F4802028606068A8B1FFF739F9064656
:1019C0000DE0286840F48030F4E740F4802028607F
:1019D000F7E700BFFFF72CF9801B642873D828684D
:1019E0008003F7D50CE0FFF723F9064605E000BFBA
:1019F000FFF71EF9801B6428F0D828688003F7D40D
:101A00002078DFF89C8280074FF0000A3ED5A3487B
:101A1000001D016811F00C0F08D00068C0F38100B0
:101A200002280BD1D9F80000400207D428688007AB
:101A300016D5E068012800D112E02BE1E068B8B1CA
:101A40000120C8F80000FFF7F3F8064605E000BFE4
:101A5000FFF7EEF8801B0228C0D828688007F7D56A
:101A60002868216920F0F80040EAC10028600DE0F4
:101A7000C8F800A0FFF7DCF8064604E0FFF7D8F846
:101A8000801B02281FD828688007F7D42078000719
:101A900022D5824E83486169703671B1012101609F
:101AA000FFF7C6F8074604E0FFF7C2F8C01B02289C
:101AB00009D830688007F7D50EE0C0F800A0FFF71E
:101AC000B7F8074605E082E0FFF7B2F8C01B02282E
:101AD0007DD830688007F7D42078400768D5DFF8D4
:101AE000BCB100270BF13C0BDBF80000C0000BD4AD
:101AF000DBF8001041F08051CBF80010DBF800005B
:101B0000012700F080500090674E3068C00510D467
:101B1000306840F480703060FFF78AF8009005E08C
:101B2000FFF786F80099401A022850D83068C0059F
:101B3000F6D55A4EA0686C3601280FD005283068BB
:101B400010D020F001003060306820F004003060D8
:101B5000A068B8B1FFF76CF800900FE0306840F073
:101B60000100F4E740F004003060F7E7FFF760F8A9
:101B70000099411A41F28830814266D83068800766
:101B8000F4D50EE0FFF754F8009007E0FFF750F8A7
:101B90000099411A41F28830814256D83068800756
:101BA000F4D42FB1DBF8001021F08051CBF80010F5
:101BB000A069C8B33949091D0968C1F38101022927
:101BC0004AD00228504607D0C8F8600000E03CE048
:101BD000FFF72EF804463BE04746C8F86000FFF7E1
:101BE00027F8064605E000BFFFF722F8801B022811
:101BF0002BD828688001F7D4D4E907010843A16AEB
:101C00002A4A490802EB0141626A41EA821108430B
:101C100094F82C1040EA0161C9F8001001203866E0
:101C2000FFF706F8044606E036E000BFFFF700F8CD
:101C3000001B022809D828688001F7D52CE000BFD6
:101C4000FEF7F6FF001B022802D90320BDE8F88F3B
:101C500028688001F4D41FE00128F7D0D9F80000EB
:101C6000E26900F48001914214D1226A00F03F0140
:101C700091420FD147F6C071626A0140914209D189
:101C8000A26A00F44031914204D1E16A00F0706030
:101C9000884201D00120D9E70020D7E7043802406C
:101CA00000004742800E4742007000400000FFFFE6
:101CB00010B5401EB0F1807F01D3012010BD4FF060
:101CC000E02460610F21601701F0ADFD0020A061EC
:101CD00007202061002010BDFEE70000F0B50023C2
:101CE0000A24302537261F4611E000BFB4EB107FD1
:101CF00002D905EB107C01E006EB107C01F813C063
:101D000001EB430C00015B1C8CF80170DBB29342C9
:101D1000ECD3F0BD10B5FEF7C1FD002010BD0000F2
:101D200010B586B0044600F03FF80021A4F100622F
:101D30004FF48040824219D314492144814201D298
:101D4000012113E012492144814201D202210DE018
:101D500010492144814201D2032107E00E4820446A
:101D6000B0F5803F01D2042100E005210020009061
:101D70000320CDE902100220049005A96846FEF771
:101D800041FD002800D0032006B010BD00C0FFF7C1
:101D90000080FFF70040FFF70000FFF7002032232C
:101DA00053709070D070704710B5FEF7BFFD0249B8
:101DB000F3200860002010BD0C3C024010B5002349
:101DC00004E000BF10F8014BCC545B1C9342F9D3E4
:101DD000084610BD2DE9F04117460D460646002481
:101DE00010E03259291900230220FEF761FD10B1DD
:101DF0000120BDE8F08130592959884201D00220E4
:101E0000F7E7241DBC42ECD30020F2E7F0B587B021
:101E100014216846FEF726FA1D480025016841F0A6
:101E200004010160016801F004010591016841F0BD
:101E300080010160016801F080010591016841F0B5
:101E4000010101600068012200F00100114ED4037D
:101E5000059021463046FEF7E6FE0F4F0122022193
:101E60003846FEF7E0FE00940124694630460194AE
:101E7000CDE90245FEF706FE0220CDE900046946E1
:101E80003846CDE90245FEF7FDFD07B0F0BD000084
:101E900030380240000802400000024010B5002225
:101EA0000F49104800F05AFC08B1FEF781FB0E49BB
:101EB0000C4800F028FE08B1FEF77AFB0B490948F0
:101EC00000F070FA08B1FEF773FB064800F094FECC
:101ED000002803D0BDE81040FEF76ABB10BD00002B
:101EE0001C000020080100209C0000206C00002045
:101EF000FEE7FEE70148FFF759B80000D8050020CB
:101F00002DE9F04103680D4604461E6C03EB4511B4
:101F1000D1F8080BD4F810E04FF400474FF0200C34
:101F200004F57172BEF1010F09D0DFF898E0764533
:101F300039D1020432D500BFC1F8087B3FE0224B03
:101F40005FEA007E04D59E4239D90004F4D436E01D
:101F50005FEA806E02D5C1F808CB30E010F0280FA0
:101F60002DD19E4201D90004E6D4C5EBC50004EB97
:101F70008000D1F8101BD0F80432C1F31201591AB5
:101F8000C0F81412D0F808121944C0F8081295B914
:101F9000D4F8100278B9012120680AE080060AD539
:101FA000C1F808CB07E035B9D4F8100218B9002100
:101FB000184601F09DF9E9B22046FEF70DFF00201A
:101FC000BDE8F0810A31544F0A30544F2DE9F84FE3
:101FD0000E46C1EBC60100EB810481460568D4E9D9
:101FE00014103C34884202D90120BDE8F88F081A49
:101FF000A168814200D20846C01C870805EB46183C
:102000001BE000BFA0EB010AA068504500D2824649
:102010000AF10300870899F8100000901FFA8AF36C
:10202000F2B22846E16801F0EBFBE16801EB0A003F
:10203000E060A16901EB0A00A061D8F8180980B23C
:10204000B84205D3D4E90501814201D20028D9D193
:10205000D4E90501884208D806F00F010120884024
:10206000D5F834188143C5F834180020BDE770470F
:1020700070470178407841EA0020704710B5FEF7BC
:10208000DDFD084C2068F9280AD34FF400410648CA
:10209000FEF7C2FD02210548FEF7BEFD00202060CC
:1020A00010BD00001800002000080240000002409F
:1020B00030B593B030216846FEF7D4F814210CA84F
:1020C000FEF7D0F81D480025016841F080510160FD
:1020D000006800F0805011901948016821F44041D7
:1020E00041F4004101600068022400F44040119076
:1020F00001200090000401908001CDE906400820F5
:1021000008909020CDE9090403200B906846FFF762
:1021100021FC08B172B6FEE70CA90F2081E831005E
:102120004FF48050CDE90F0502210CA8FFF7A8FA63
:10213000002801D072B6FEE713B030BD403802402F
:10214000007000400548016841F4700101600349D6
:102150004FF00060803908607047000088ED00E0B3
:1021600010B5D0F8B8220AB152689047002010BDCF
:10217000134610B50A46002100F0FEFB002010BDFA
:10218000134610B50A46002100F09EFC002010BD49
:1021900010B50446802100F073FC2046BDE81040D5
:1021A000002100F06DBC10B50323C0F85821C0F821
:1021B0009432C0F85C2113460A46002100F0DCFB93
:1021C000002010BD10B505210023C0F894121A4656
:1021D000194600F0D1FB002010BD10B5022382612A
:1021E000C0F89432C26113460A46002100F06CFC2C
:1021F000002010BD10B504210023C0F894121A4627
:10220000194600F061FC002010BD70B5D0F8BC127A
:102210000446B9B10025C1F800540220C1F80454A5
:1022200081F8180481F8105481F81404D4F8C0021D
:1022300004F52F7480688047206801F02BFB002094
:10224000256070BD022070BD002070477CB502463D
:10225000D2E9AF4094F81814042902D0072958D0C5
:102260005AE0D4F80014002579B1012931D9890246
:10227000D4F80824A1F5006111440369D4F80424BA
:102280002046984728B303207CBDD4F804140129C4
:102290001FD005290BD0C4F804540120ADF8060066
:1022A0008DF8005069461046FFF772FF11E0217863
:1022B000212902D041291CD00BE06078A17800EBE5
:1022C0000120E17800EB0140217900EB0160C4F8C6
:1022D0000804C4F804540320C4F8005484F8180413
:1022E00084F8115484F8125484F8135484F81404B4
:1022F00012E06178A27801EB0221E27801EB024161
:10230000227901EB0261C4F80814C26808469047BC
:10231000B8E71046FEF7A8F800207CBD1B2101801D
:1023200000487047D80000200A210180004870470B
:10233000F400002010B5D0F8C002062905D80068C6
:10234000034900F0DBF9024810BD002010BD000079
:10235000000A002010B5044640F21C4001F078FB52
:102360000021C8B1C4F8BC0200F580600C4AC0E985
:1023700002210160416041760222027601744174BB
:102380008174C17402754175D4F8C00240688047F9
:10239000002800D0032010BD0220C4F8BC1210BDDC
:1023A0000040000819B1C0F8C01200207047032097
:1023B0007047002070470000F8B500240D46D0F8A3
:1023C000BC12ADF800402F7826462246234617F06F
:1023D000600760D0202F72D16E780222072E6ED255
:1023E000DFE806F05504080C0F3236002946FDF7E9
:1023F000AFFF87E02946FEF76DF883E0FDF7DCFFCD
:1024000080E091F818040A2811D00A2081F81804F5
:102410000E2281F8102481F8113481F8123481F8E9
:10242000133481F8140400BF81F815346AE081F890
:10243000182481F8103481F8113481F8123481F8AD
:10244000133481F81424EFE7012201F5836142E09F
:1024500091F81804022807D0032805D0052803D0D6
:10246000062801D009284DD181F8182481F81034AC
:1024700081F8113481F8123481F8133481F814246E
:1024800081F81534C1F80034C1F804343AE0294623
:10249000FDF726FF36E06B78062B11D003DC3BB14D
:1024A000012B2BD12EE00A2B18D00B2B26D11DE0AF
:1024B00090F89C12032921D1022269460BE01DE00D
:1024C00069882123B3EB112F04D1EA88104E092A21
:1024D00000D909223146FFF780FE13E090F89C22D4
:1024E000032A0BD1D1F80C140122F4E76A8812F008
:1024F000FF0F03D190F89C32032B05D02946FFF73C
:1025000047FE03242046F8BDD0B2C1F80C04F9E719
:10251000EA00002010B50A46024903A000F0EEF8D8
:10252000004810BDD803002044465520436F6E6616
:102530006967000012200880004870473C000020B6
:1025400010B50A46024903A000F0D8F8004810BDB3
:10255000D803002044465520496E74657266616355
:102560006500000004200880004870473800002003
:1025700010B50A46024903A000F0C0F8004810BD9B
:10258000D803002053544D6963726F656C656374A2
:10259000726F6E696373000010B50A46024903A0AA
:1025A00000F0ACF8004810BDD803002053544D3360
:1025B0003220446F776E4C6F6164204669726D778C
:1025C00061726520557064617465000010B51A2051
:1025D00008800A480168001D0468001D006808188A
:1025E00009D008220649FFF779FB0549042210317A
:1025F0002046FFF773FB0248801E10BD107AFF1FB4
:1026000052000020F8B504460020ADF800004888CC
:102610000D46010A082968D2DFE801F067040917AE
:102620006767454ED4F8B412207C0A6819E0207C14
:1026300002260028D4F8B80205D0C16A6846884747
:102640000146467042E0816AF8E7C1B2062921D20C
:10265000DFE801F0030A1014181CD4F8B402426831
:1026600005E06946904725E0D4F8B4028268DAB301
:10267000207CF6E7D4F8B402C268F8E7D4F8B402D4
:102680000269F4E7D4F8B4024269F0E7D4F8B4027E
:102690008269ECE7D4F8B8128B6B2BB3C1B26A46EF
:1026A0002046984706E0207CF0B9D4F8B802416B88
:1026B00068468847014609E0207CA8B9D4F8B802EA
:1026C000016B68468847014607204870EA888AB14E
:1026D000BDF8000040B1824200D90246ADF80020AA
:1026E0002046FFF77AFDF8BDFFE729462046FFF7B1
:1026F0004FFDF8E72046FFF77DFDF4E770B50023B6
:1027000000281ED00025044602E06D1CEDB2641CBA
:102710002678002EF9D1022404EB450414801278A7
:10272000CA545B1C0322CA5400245B1C06E0CA5432
:102730005B1CDAB28C54521CD3B2401C0278002AC3
:10274000F5D170BD01004FF0000004D0012901D087
:10275000022901D0032070470120704730B4A0B196
:10276000D0F8B84200230CB1C0F8B832D0F8CC424F
:102770000CB1C0F8CC3209B1C0F8B412012180F814
:102780009C12027030BC00F0A7B830BC0320704728
:1027900010B5D0F8C402FEF72DFBBDE81040FFF7DE
:1027A000D1BF70B51646044649B1D4F8B8024269A3
:1027B0001AB194F89C02032842D0032070BDD4F8CB
:1027C0009412002504F11400022932D1D0E902311B
:1027D0008B4206D95A1A826031462046FFF7D0FC58
:1027E0000FE0994214D14068884211D3D4F898126E
:1027F00088420DD2002211462046FFF7C1FCC4F8E2
:10280000985200231A461946204600F0B5F810E009
:10281000D4F8B802C16829B194F89C02032801D108
:10282000204688478021204600F02AF92046FFF7FD
:10283000C9FC94F8A002012806D184F8A05203E054
:10284000204690470028B9D1002070BD10B513462E
:10285000044649B1D4F8B80282691AB194F89C02CE
:10286000032824D0032010BDD4F8941204F5AA70D4
:10287000032920D1D0E9021291420AD98A1A826032
:10288000C068824200D3024619462046FFF770FC1A
:1028900011E0D4F8B802016929B194F89C02032828
:1028A00001D1204688472046FFF7A4FC03E02046DC
:1028B00090470028D7D1002010BD0020704710B5E8
:1028C000012180F89C12D0F8B82212B15268017927
:1028D0009047002010BD000010B5017839BB1549A4
:1028E0000222C1F80404C0F8C4124FF0A0400860EE
:1028F000042048600020C1E90320C1E906200862E5
:102900004862C86208630846FEF772FD08B1FDF729
:102910004FFE80210748FEF72CFA4022002105488F
:10292000FEF72BFA802201210248FEF726FA00204A
:1029300010BD0000D80500200A0601F07F01D0F884
:10294000C402C1EBC10100EB810002D590F83E004A
:10295000704790F8FE0170470020704700207047D4
:1029600010B51C461346D0F8C4022246FEF770FA92
:10297000BDE81040FFF7E6BE10B5D0F8C402FEF780
:1029800097FABDE81040FFF7DDBE70B5012504469B
:1029900080F89C520020C4F894026060C4F8A4023D
:1029A000D4F8BC0228B1D4F8B8020021426820460D
:1029B00090470022402311462046FFF7D1FF4026D2
:1029C000A4F864513346002280212046C4F8606197
:1029D000FFF7C6FFA5840020266270BD90F89C1208
:1029E000042903D190F89D1280F89C1200207047B2
:1029F00010B590F89C12032904D1D0F8B812C96917
:102A000001B18847002010BD01740020704710B547
:102A1000D0F8C402FEF7BBFDBDE81040FFF792BE40
:102A200070B5044600F2AA20054600F056F80120D1
:102A3000C4F89402B4F8B002C4F8980294F8AA0258
:102A400010F01F010AD001290ED0022912D000F087
:102A500080012046BDE8704000F012B829462046AB
:102A6000BDE8704000F0CAB829462046BDE8704075
:102A700000F0F4B929462046BDE8704000F048B99E
:102A800010B5D0F8C402FEF737FABDE81040FFF7E2
:102A900059BE10B5D0F8C402FEF794FDBDE8104051
:102AA000FFF750BE10B5D0F8C402FEF7ACFDBDE88C
:102AB0001040FFF747BE90F89C1280F89D12042149
:102AC00080F89C120020704710B5D0F8C402FEF7C1
:102AD0004DFABDE81040FFF735BE70B5054611F858
:102AE000010B2870087868704C1C2046FFF7C1FA6B
:102AF0006880A41C2046FFF7BCFAA880A01CFFF742
:102B0000B8FAE88070BD38B504460020ADF8000082
:102B100041B1C4F8B812896A68468847C4F8CC0243
:102B2000002038BD032038BD02460320D2F8B83259
:102B3000002B02D01B681046184770472DE9F04162
:102B40000F462C4E8978002504463170012906D99C
:102B500039462046FFF71CFB0320BDE8F08194F8BE
:102B60009C0202280CD003281DD039462046FFF7CE
:102B70000FFB31782046FFF7F3FA03252846ECE7F0
:102B800099B320466160FFF7CFFF050004D03946B6
:102B90002046FFF7FDFAF1E72046FFF72BFB032065
:102BA00084F89C02EAE74FF00208C1B160688842ED
:102BB0001BD0C1B22046FFF7D3FA317820466160BE
:102BC000FFF7B2FF050010D039462046FFF7E0FAC4
:102BD00021792046FFF7C4FA84F89C82CEE784F876
:102BE0009C8220466160FFF7BBFA2046FFF702FB9C
:102BF000C4E7000098000020FFF74BBF2DE9F0412B
:102C00000A78002512F0600208D0202A01D0402A5C
:102C100071D1D0F8B8229268904731E04B78002209
:102C200001260A2B67D2DFE803F0415E665866088A
:102C300005662D29FFF7E6FC5FE004468888D8B9D1
:102C4000C888C8B94888802816D200F07F0794F851
:102C50009C02032810D084F89E7239462046FFF764
:102C6000D6FE2046FFF7C6FA1FB1022084F89C0268
:102C700043E084F89C6240E020463CE0FFF75EFFC2
:102C800005463AE0CB88012B35D190F89C32012BD8
:102C900004D0022B02D0032B2DD104E0826001224C
:102CA00000F1080116E00122011D13E090F89C22BA
:102CB000012A03D0022A01D0032A1CD1CA88022A81
:102CC00019D1C660D0F8A41209B10321C160022253
:102CD00000F10C01FFF781FA0FE0498801290CD1BE
:102CE000C0F8A46211E090F89C32012B08D0022BAE
:102CF00006D0032B04D0FFF74BFA2846BDE8F0813D
:102D000049880129F9D1C0F8A422FFF773FAF4E742
:102D10002DE9F0410D46044628780027097910F086
:102D200060000BD0202801D0402873D1D4F8B8021D
:102D3000294682682046904707468CE06878D8B3D9
:102D4000012822D0032865D194F89C02022802D0E1
:102D500003287CD10BE0002979D0802977D0204648
:102D6000FFF78EFE80212046FFF78AFE73E0688819
:102D700038B931B1802904D0E88810B92046FFF76E
:102D80007FFE2046FFF736FA65E094F89C020228A1
:102D9000E1D003285BD16888D8BB480602D0204622
:102DA000FFF7F6FC2046FFF725FAD4F8B8022946CB
:102DB0008268204690474EE0FFE794F89C02002688
:102DC000022802D0032842D111E009B180293ED166
:102DD000080601F07F0000EB800004EB800101D5C4
:102DE000143101E001F5AA7102220E602BE0080601
:102DF00001F00F0000EB800004EB80000BD5808C0D
:102E000040B101F07F0000EB800004EB8005143539
:102E10000CE020E01BE0B0F86401C0B101F07F00DD
:102E200000EB800004EB800505F5AA7541B180290F
:102E300006D02046FFF780FD10B10120286000E099
:102E40002E60022229462046FFF7C7F903E02946F3
:102E50002046FFF79DF93846BDE8F08170B506467B
:102E6000087800240D4610F0600003D0202801D01F
:102E7000402817D196F89C02012803D0022801D0DF
:102E800003280FD1287901280CD8D6F8B802826817
:102E9000304690470446E888204306D13046FFF785
:102EA000A9F902E03046FFF773F9204670BD10B56E
:102EB0000446D0F8B80218B14268217920469047FC
:102EC000D4F8CC0210B10020C4F8CC022046BDE8F2
:102ED0001040FFF7E7BD000070B50A78012302F04B
:102EE0000F054E78AB401B4CD0F81C58012E17D064
:102EF00045EA0343C0F81C3800EB4210D0F8002B21
:102F000012040BD4D0F8002B0B89C978C3F30A0341
:102F10001A4344EA81410A43C0F8002B002070BDE7
:102F20009BB21D43C0F81C5800EB4210D0F800398A
:102F30001B04F3D4D0F800390D89C978C5F30A050C
:102F400089042B4341EA82510B432343C0F80039E3
:102F5000E4E7000000800010D0F800196FF30A01C8
:102F6000C0F80019D0F8041841F48071C0F80418B2
:102F70000020704770B5044606990A9E049D0D987E
:102F8000012916D0E06840F04000E060204600F0E3
:102F90002BF8A16B1EB321F48031A163012D07D161
:102FA000A16841F00601A160A16841F02001A16083
:102FB00070BDA16B21F48031A163E168094A114021
:102FC000E160E16821F44011E160012803D1E0688B
:102FD00040F48010E060204600F006F8DEE741F49F
:102FE0008031DAE7BFFFBDFF01220C4902E0521C2D
:102FF0008A420BD80369002BF9DA026942F0010218
:103000000261012204E0521C8A4201D90320704768
:103010000369DB07F7D1002070470000400D030073
:10302000D0F8001E21F00301C0F8001ED0F80418EB
:1030300021F00201C0F8041800207047D0F8001EEB
:1030400021F00301C0F8001ED0F8041841F002017D
:10305000C0F80418002070472DE9F04F00250E46F7
:103060000446DDF82CC0DDF824B0109F2846294620
:1030700004EB8002C2F80411401C0F28F8D320464C
:10308000C7B1806B20F40012A263A06B40F4002251
:10309000A26308468846C4F8000ED4F800182046FB
:1030A000C4F80018BCF1010F16D0D0F8001841F098
:1030B000030116E0D0F8040840F00202C4F8042826
:1030C000A06B40F40012A263A06B20F40022A26364
:1030D000A06B20F48022DBE7D0F800180BB141F0A0
:1030E0000101C0F80018102100F090FA00B101258C
:1030F000204600F07BFA00B101254046C4F8108854
:10310000C4F81488C4F81C8800214FF000694FF0FF
:10311000904A4FF67F3314E004EB4112D2F800C915
:10312000BCF1000F06DA11B1C2F800A904E0C4F83E
:10313000009901E0C2F80009C2F81009C2F8083984
:10314000491C8E42E8D8002115E000BF04EB411273
:10315000D2F800CBBCF1000F06DA11B1C2F800AB17
:1031600004E0C4F8009B01E0C2F8000BC2F8100BA9
:10317000C2F8083B491C8E42E8D8D4F8101821F454
:103180008072C4F81028A0616FF080406061BBF1CC
:10319000000F03D1A06940F01000A061A0690949A7
:1031A0000843A0610C9818B1A06940F00800A06124
:1031B000012F03D1A06904490843A0612846BDE856
:1031C000F08F000000383C8004000040816821F04E
:1031D000010181600020704770B50D784E78434C36
:1031E000EBB200EB4313012E1FD0D3F8100B6FF39B
:1031F0001200C3F8100BD3F8100B2040C3F8100BCB
:10320000486908B188684861D3F8100B40F4002081
:10321000C3F8100BD3F8100B8C68C4F312042043CE
:10322000C3F8100B012A55D058E04E69002ED3F890
:10323000106932D06FF31206C3F81069D3F8106921
:103240002640C3F810694E698C68A64200D94C61CB
:10325000D3F8104944F40024C3F81049D3F81049B6
:103260004E69C6F312063443C3F81049012A22D02E
:1032700000EB4512D2F8003943F00443C2F800399C
:103280004A6932B3D0F83428097801F00F030121DC
:1032900099400A43C0F8342826E02640C3F8106954
:1032A000D3F8104944F40024C3F81049D3F8104966
:1032B0006FF31204D8E7096919B100EB4512C2F89F
:1032C000141900EB4510D0F8001941F00441C0F882
:1032D000001909E0C86808B1C3F8140BD3F8000B53
:1032E00040F00440C3F8000B002070BDFFFF07E072
:1032F00010B5036C134CA34203D9D0F8003B002B4C
:103300001EDB0023C0F8103BD0F8103B43F4002331
:10331000C0F8103BD0F8103B43F01803C0F8103B46
:10332000D0F8103B43F0C043C0F8103B012907D14F
:10333000C0F8142BD0F8001B41F08021C0F8001B0E
:10334000002010BD0A30544F4A780B78012A00EB58
:1033500043100BD0D0F8002B22F40012C0F8002B41
:10336000C978032914D0022912D017E0D0F8002917
:1033700022F40012C0F80029C978032901D00229DB
:103380000CD1D0F8001941F08051C0F8001905E0C7
:10339000D0F8001B41F08051C0F8001B002070479E
:1033A0000A784B78D1B200EB4110012B12D0D0F843
:1033B000001B002906DB2AB1D0F8001B21F0804158
:1033C000C0F8001BD0F8001B41F40011C0F8001B2E
:1033D00000207047D0F80019002906DB2AB1D0F888
:1033E000001921F08041C0F80019D0F8001941F40B
:1033F0000011C0F80019EBE7F8B50C784F78774D5D
:10340000E3B26FF0604600EB4313012F26D0D3F8F0
:10341000104B6FF31204C3F8104BD3F8104B2C4031
:10342000C3F8104B4C69002C74D08D682C44641E7A
:10343000B4FBF5F4D3F8105BA4B206EAC4463543F6
:10344000C3F8105BD3F8105B8E686643C6F31204B2
:103450002543C3F8105B012A71D0A6E04F691FB362
:10346000D3F810796FF31207C3F81079D3F81079F5
:103470002F40C3F810794F698D682F447F1EB7FB2A
:10348000F5F506EAC545D3F810693543C3F8105978
:10349000D3F810594E69C6F312063543C3F81059D4
:1034A000CD78012D10D01BE0D3F810692E40C3F861
:1034B0001069D3F8105945F40025C3F81059D3F812
:1034C00010596FF3120509E0D3F8105925F0C045E3
:1034D000C3F81059D3F8105945F00055C3F81059E6
:1034E000012A18D000EB4413D3F8004944F00444F7
:1034F000C3F80049CC78012C2FD04A6962B3D0F8C8
:103500003428097801F00F03012199400A43C0F8DB
:10351000342860E036E00A691AB100EB4413C3F8BE
:103520001429C97801290FD1D0F80818C90500EB72
:103530004411D1F8002903D442F0005202E030E0F7
:1035400042F08052C1F8002900EB4410D0F8001975
:1035500041F00441C0F800193DE0D0F80848E40506
:10356000D3F8004902D444F0005401E044F0805400
:10357000C3F8004900928A8A93B20A78C96800F0B9
:103580003FF928E0D3F8104B8D68C5F312052C43A2
:10359000C3F8104BD3F8104B44F40024C3F8104B7D
:1035A00059E7CA680AB1C3F8142BC97801290CD1AC
:1035B000D0F80808C005D3F8000B02D440F0005042
:1035C00001E040F08050C3F8000BD3F8000B40F04E
:1035D0000440C3F8000B0020F8BD0000FFFF07E027
:1035E000816841F0010181600020704700211022B4
:1035F0000261054A491C914201D9032070470369C1
:10360000DB06F7D400207047400D03000022202382
:1036100043EA811101610549521C8A4201D9032004
:10362000704703699B06F7D400207047400D0300E4
:10363000D0F8080810F0060004D0022803D00628AD
:1036400001D00F20704702207047406900F0010050
:103650007047D0F81818D0F81C08084080B270479E
:10366000D0F81818D0F81C080840000C704710B5A6
:10367000D0F81038D0F8342801F00F0400EB4110D6
:10368000E24002F00102D0F8080943EAC2121040F9
:1036900010BD00EB4111D1F8081BD0F81408084008
:1036A00070474169806908407047D21C10B5930883
:1036B000002200F5805002E00468521C10C19A42BA
:1036C000FAD3084610BD10B5C26822F0C042C260ED
:1036D000012902D029B1012010BDC16841F000517B
:1036E00002E0C16841F08041C1603220FDF778F806
:1036F000002010BDD0F8002822F4FE62C0F8002897
:10370000D0F800284FF4FE6303EA01110A43C0F821
:103710000028002070470000022A3ED1264A274B8D
:103720000A449A4201D20F2138E0254A254B0A4427
:103730009A4201D20E2131E0234A244B0A449A4294
:1037400001D20D212AE0224A224B0A449A4201D298
:103750000C2123E0204A214B0A449A4201D20B213A
:103760001CE01F4A1F4B0A449A4201D20A2115E06D
:103770001D4A1E4B0A449A420FD31D4A1D4B0A4450
:103780009A4201D2082109E01B4A11441B4A914286
:1037900001D2072102E0062100E00921C26822F4DB
:1037A0007052C260C2684FF4705303EA81210A4329
:1037B000C260002070470000405327FF00350C0016
:1037C000401E1BFF40420F0000DC0BFF804F120029
:1037D000808CF9FE20D6130060B6E5FE60E316008B
:1037E00000D3CEFE40771B00C05BB3FEC09121002A
:1037F00000CA91FE20753800E05459FEE09C41005B
:1038000010B5029C64B9DB1C9C0800EB023000235D
:1038100000F5805002E004C902605B1CA342FAD3A9
:10382000002010BDFEE70907090E002804DB00F1A7
:10383000E02080F80014704700F00F0000F1E02055
:1038400080F8141D704702E008C8121F08C1002A42
:10385000FAD170477047002001E001C1121F002A11
:10386000FBD1704770B586B000260C46054605961C
:10387000FDF75CF8022000960295CDE9034005A90A
:103880006846FCF7BFFF10B1FF2006B070BDFDF722
:1038900005F8FAE710B5002821D0114B0022001FCF
:1038A000196803E0814203D80A4649680029F9D122
:1038B00052B11368841A9C4204D100681844106005
:1038C000104602E0506000E0186039B102680B1A3F
:1038D000934203D10B681A4402604968416010BDED
:1038E000000100200024FDF7B1F9FEF7E1FBFEF72F
:1038F0008DFA51494868037801F108021370437842
:10390000537083789370C378D370037913714379BC
:10391000537183799371C079D07109680B7802F182
:10392000080003704B7843708B788370CB78C3703A
:103930000B7903714B7943718B798371C979C171AB
:1039400011783E4DDFF8F8804FF40046A5290BD1E1
:103950005178A52908D111795A2905D151795A29C7
:1039600002D10178FF2903D00178A52945D054E080
:103970004178FF2951D10179FF294ED14079FF28A3
:103980004BD1304F386830490840B0F1005F44D126
:1039900002212846FCF7E0FF31464046FCF7DCFFF9
:1039A000012080F310884FF0E02100200861486179
:1039B0008861FDF7FFFE4FF0FF31A00000F1E0202D
:1039C000C0F88011C0F88012641C082CF5D31F4881
:1039D000016821F001010160016821F0040101602A
:1039E000016821F080010160002080F31088786870
:1039F000396881F3088880470FE04178A5290CD108
:103A00000179A52909D14079A52806D106210520EB
:103A1000FFF728FF6420FCF7E3FEFEF73FFA444679
:103A200031462046FDF7F8F802212846FDF7F4F864
:103A3000FA20FCF7D5FEF3E700000020000002406A
:103A400000080240004000080000FE2F303802400D
:103A5000F0B50B30154D20F007010024144A0FE09B
:103A600003688B420BD38B4205D95E1A4318476813
:103A7000C3E9006700E04368136002C004E0021D70
:103A800010680028ECD12046002802D1286808B12F
:103A90000020F0BD064A07481060074A121A22F0BB
:103AA0000702C0E9002401202860D7E704010020B4
:103AB00000010020040B0020001100200000000085
:103AC00000000000010203040607080940496E7463
:103AD00065726E616C20466C6173682020202F3007
:103AE0007830383030303030302F30332A30313683
:103AF0004B612C30312A3031364B672C30312A3033
:103B000036344B672C30312A3132384B6700000095
:103B1000303B000800000020080100004638000883
:103B2000383C000808010020F8150000563800084D
:103B300000000208008000080000000000000000F3
:103B40000000000000000000000000003525000813
:103B5000652500087125000899250008CD25000875
:103B6000152500084125000804030904120100027C
:103B700000000040830411DF000201020301000085
:103B80001A03000000000000000000000000000018
:103B9000000000000000000000000000CC3A000817
:103BA000A91D0008151D0008211D0008D51D0008CD
:103BB000BD1D00089D1D0008010000001000000050
:103BC000000000000024F40000000000552300085D
:103BD0000B220008B92300084D22000849220008E2
:103BE0000000000000000000B323000800000000F7
:103BF000000000001D2300081D2300081D230008ED
:103C0000292300083523000809021B00010102C016
:103C1000320904000000FE01020609210BFF00002A
:103C2000041A01000A060002000000400100000022
:083C300000000000000000008C
:040000050800019559
:00000001FF
